:020000040800F2
:1000000008070020CD010008F1150008751400084C
:10001000ED150008D50200083D1C00080000000096
:100020000000000000000000000000005116000861
:10003000D9020008000000002116000885160008FB
:10004000E7010008E7010008E7010008E7010008F0
:10005000E7010008E7010008E7010008E7010008E0
:10006000E7010008E7010008E7010008E7010008D0
:10007000E7010008E7010008E7010008E7010008C0
:10008000E7010008E7010008E7010008E7010008B0
:10009000E7010008E7010008E7010008E7010008A0
:1000A000E7010008E7010008E7010008E701000890
:1000B000E7010008E7010008E7010008E701000880
:1000C000E7010008E7010008E7010008E701000870
:1000D000E70100082D1C0008E7010008E7010008FF
:1000E000E7010008E7010008E7010008E701000850
:1000F000E7010008E7010008E7010008E701000840
:10010000E7010008E7010008E7010008E70100082F
:10011000E7010008E7010008E7010008E70100081F
:10012000E7010008E7010008E7010008E70100080F
:1001300000F002F800F03AF80AA090E8000C8244BF
:100140008344AAF10107DA4501D100F02FF8AFF29C
:10015000090EBAE80F0013F0010F18BFFB1A43F0A5
:1001600001031847C81B0000E81B0000103A24BF19
:1001700078C878C1FAD8520724BF30C830C144BF0C
:1001800004680C607047000000230024002500264E
:10019000103A28BF78C1FBD8520728BF30C148BFEA
:1001A0000B6070471FB51FBD10B510BD00F058F8AB
:1001B0001146FFF7F7FF01F07DFD00F076F803B47C
:1001C000FFF7F2FF03BC00F07DF80000094880470C
:1001D00009480047FEE7FEE7FEE7FEE7FEE7FEE729
:1001E000FEE7FEE7FEE7FEE704480549054A064B41
:1001F00070470000ED1600083101000808010020DA
:100200000807002008030020080300204FF0000228
:1002100000B5134694469646203922BFA0E80C50FC
:10022000A0E80C50B1F12001BFF4F7AF090728BFD7
:10023000A0E80C5048BF0CC05DF804EB890028BF53
:1002400040F8042B08BF704748BF20F8022B11F07C
:10025000804F18BF00F8012B7047704770477047F8
:10026000754600F02BF8AE4605006946534620F06F
:100270000700854618B020B5FFF7B6FFBDE820405F
:100280004FF000064FF000074FF000084FF0000B52
:10029000AC46ACE8C009ACE8C009ACE8C009ACE8C1
:1002A000C00921F007018D46704710B50446AFF331
:1002B00000802046BDE81040FFF781BF004870472E
:1002C0001000002001491820ABBEFEE72600020006
:1002D00070470000FEE7000070470000EFF3108059
:1002E00072B600BFFEE70000014690F82100022828
:1002F00013D10868D1E90FC3026822F00E02026030
:10030000026822F001020260012000FA03F2CCF838
:10031000042081F82100002002E0042088630120ED
:10032000002281F82020704780B590F82110022922
:1003300027D1026840F2444C1368C4F2020C23F047
:100340000E0313601368ACF571718A4223F001014A
:1003500011601BD940F20841C4F202018A424ED01A
:1003600040F21C41C4F202018A424CD040F23041BA
:10037000C4F202018A424AD14FF480734CF8403CE7
:1003800079E0042181630121084680BD6B21C4F21C
:1003900002018A424FF0010316DC2F21C4F2020150
:1003A0008A423DDD3021C4F202018A4224D0442138
:1003B000C4F202018A424CD05821C4F202018A429E
:1003C0004DD14FF4803350E040F20741C4F20201B6
:1003D0008A4231DD40F20841C4F202018A4244D02F
:1003E00040F21C41C4F202018A4223D040F2304163
:1003F000C4F202018A4232D14FF4807335E0012306
:100400004CF8403C37E010234CF8403C33E04FF4CC
:100410008033624508BF4FF480534CF8403C2AE0DB
:100420000821C4F202018A421FD01C21C4F2020139
:100430008A4214D1102318E06C21C4F202018A42CE
:100440000AD08021C4F202018A4208D14FF08073A1
:100450000BE04FF4805308E04FF4801305E04FF4B5
:100460008033624508BF4FF480534FF6C031CFF65A
:10047000FF714CF80130012180F82110426B0021FE
:1004800080F820100AB190470021084680BD000086
:10049000B0B5044600F00AF9054640F20400C2F285
:1004A00000000078611C18BF044400BF00F0FEF893
:1004B000401BA042FAD3B0BD2DE9F04F83B00C68C9
:1004C000002C00F0EA80A0F18042A2F5843240F2D4
:1004D000004E4FEAB22241F60047C4F2010E0092EC
:1004E000C4F20107062200254FF001094FF0000B6E
:1004F0004FF0000AB84208BF0522019209E000BF90
:100500000C680BF1010B34FA0BF205F1040500F055
:10051000C48009FA0BF814EA080CF1D04C684FF6C5
:10052000FF72C1F21002944210DC122C50D8DFE8A6
:1005300004F0330A41454F4F4F4F4F4F4F4F4F4FEE
:100540004F4F4F484C00D1F80CA041E04FF6FF72DE
:10055000C1F2210294420FDC0022C1F21102944246
:100560001AD00022C1F21202944215D00022C1F228
:100570002102944210D02BE00022C1F222029442C8
:100580000AD00022C1F23102944205D00022C1F209
:10059000320294421CD100BF8C6844B1012C14BFBC
:1005A000C0F81480C0F810804FF0080A10E04FF037
:1005B000040A0DE0CC6804F1080A09E04FF0000AD3
:1005C00006E0CC6804F1040A02E0CC6804F10C0AED
:1005D0002C460746BCF5807F24BF203C04373A6890
:1005E0000F2303FA04F6B2430AFA04F422433A60F2
:1005F000CA79D2067FF584AF41F21804C4F202042E
:1006000022684FF6084842F0010222602268CFF6C5
:10061000FF7802F001020292029A2BF00302724468
:1006200052F8084005F00C0603FA06F7009BBC439D
:10063000019F052B38BF1F4607FA06F6344342F8E0
:1006400008404C6840F20C46E202DEF8082054BF35
:1006500022EA0C0742EA0C07C4F20106A202CEF815
:100660000870326854BF22EA0C0742EA0C07A20362
:100670003760DEF8042054BF22EA0C0742EA0C0778
:10068000E203CEF80470DEF8002054BF22EA0C0228
:1006900042EA0C02CEF8002032E703B0BDE8F08F4A
:1006A000002A08BF090401617047000040F20010F1
:1006B000C2F200000068704740F2040040F20011EE
:1006C000C2F20000C2F2000100780A68104408601B
:1006D0007047000080B542F20000C4F202000168D9
:1006E00041F010010160032000F066F80F2000F0D7
:1006F00005F800F02BF8002080BD0000B0B540F2F6
:100700000402C2F2000240F200011278C2F20001BB
:100710004FF47A730968B3FBF2F20446B1FBF2F1CD
:10072000084600F0E9FA0F2C4FF001050CD858B933
:100730004FF0FF3021460022002500F02DF840F256
:100740000800C2F2000004602846B0BD82B041F249
:100750001800C4F202000168022241F001010160A8
:10076000016801F0010101910199416841F0805156
:100770004160406800F08050009000980420C4F26E
:100780000100016862F31A61016002B07047000065
:1007900080B501F055FA80BD70B514460D46064689
:1007A00001F05EFA2946224600F024FF0146304659
:1007B00001F05EFA70BD000080B501F06BFA80BDFB
:1007C0002DE9F04381B0002800F0878042F2000854
:1007D000C4F202080446D8F800000D4600F00700F5
:1007E00088420CD2D8F8000020F007002843C8F84F
:1007F0000000D8F8000000F00700A8426DD1206882
:1008000041F204098107C4F2020917D5410705D551
:10081000D9F8001041F4E061C9F80010010705D5CE
:10082000D9F8001041F46051C9F80010D9F800104F
:10083000A26821F0F0011143C9F80010C00745D1AA
:10084000D8F8000000F00700A8420CD9D8F8000042
:1008500020F007002843C8F80000D8F8000000F096
:100860000700A84239D12068410707D5D9F8001000
:10087000E26821F4E0611143C9F80010000708D5CF
:10088000D9F80000216920F4605040EAC100C9F89D
:10089000000000F077F8D9F8001041F61252C1F3C9
:1008A0000311C0F60002515C40F2000220FA01F18F
:1008B00040F20800C2F200000068C2F200021160BB
:1008C000FFF71CFF002001B0BDE8F083606801283D
:1008D00007D159F8041C89030CD4012001B0BDE8EC
:1008E000F08359F8041C022802D18901F5D501E0F2
:1008F0008907F2D5D9F8001021F003010843C9F89F
:100900000000FFF7D3FE064641F28837D9F8000011
:10091000616800F00C00B0EB810F91D0FFF7C6FECC
:10092000801BB842F2D9032001B0BDE8F08300007B
:1009300040F20000C2F200000068704780B5FFF787
:10094000F7FF41F20401C4F20201096841F62252A4
:10095000C1F30221C0F60002515CC84080BD000016
:1009600080B5FFF7E5FF41F20401C4F20201096816
:1009700041F62252C1F3C221C0F60002515CC840C8
:1009800080BD000041F2040CC4F2020CDCF800301F
:1009900003F00C00082841F20020C0F27A0018BFD2
:1009A0007047C3F383420AA18A5CD90305D440F699
:1009B0000010C0F23D0050437047DCF8001008A35F
:1009C000C1F34041595C5043B0FBF1F0704700BFA8
:1009D00002030405060708090A0B0C0D0E0F101080
:1009E000010200002DE9F04182B0002800F0C4802F
:1009F0000446007841F20006C007C4F2020643D064
:100A0000706800F00C00042817D0706800F00C002B
:100A1000082802D17068C0030FD465689DB1B5F590
:100A2000803F06D03068B5F5A02F0DD140F480206E
:100A30003060306840F480300CE03068800323D5AB
:100A4000606808BB98E0306820F48030306030681F
:100A500020F480203060FFF729FE002D054610D0DD
:100A60003068800310D4FFF721FE401B6428F7D9BB
:100A700008E100BFFFF71AFE401B64284FF0030097
:100A800077D830688003F5D42078800718D570684F
:100A900010F00C0F07D0706800F00C00082826D169
:100AA0007068C00323D43068800702D5206901280C
:100AB00062D13068616920F0F80040EAC10030601E
:100AC000207800073DD5A06938B30020C4F2422049
:100AD0000121C0F88014FFF7E9FD0546706A800720
:100AE0002DD4FFF7E3FD401B0228F7D9CAE02069A7
:100AF000002840F20000C4F2422000F09A80012158
:100B00000160FFF7D3FD054630688007D1D4FFF7B9
:100B1000CDFD401B0228F7D9B4E00020C4F24220EA
:100B20000021C0F88014FFF7C1FD0546706A8007F8
:100B300007D5FFF7BBFD401B0228F7D9A2E000F064
:100B400071FD207840071BD4E5698DB1706800F015
:100B50000C0008284CD1012D0ED07068216A00F4D9
:100B600080328A4208D1616A00F47010884203D151
:100B7000002002B0BDE8F081012002B0BDE8F081A4
:100B8000F069C0000BD4F0694FF0010840F08050CC
:100B9000F061F06900F080500190019801E04FF0A1
:100BA000000847F20007C4F200073868C00510D4F7
:100BB000386840F480703860FFF778FD054600BF64
:100BC0003868C00505D4FFF771FD401B6428F7D9CC
:100BD00058E0E568002D3DD0012D05D0306A052D87
:100BE00039D140F004003062306A40F0010038E052
:100BF0000027C4F2422700203866FFF757FD022D78
:100C000005460BD13068800154D5FFF74FFD401BDE
:100C100002284FF00300F5D9ABE700BF3068800130
:100C2000A6D5FFF743FD401B02284FF00300F5D97E
:100C30009FE700210160FFF739FD05463068800716
:100C40007FF53EAFFFF732FD401B02284FF0030057
:100C5000F4D98EE7306A20F001003062306A20F06B
:100C600004003062FFF722FD002D054641F288376F
:100C700014D000BF306A800713D4FFF717FD401B64
:100C8000B842F7D9032002B0BDE8F081FFF70EFDAE
:100C9000401BB8424FF003003FF66BAF306A80074D
:100CA000F4D4B8F1000F3FF44FAFF06920F080505A
:100CB000F06149E7206AB0F5803F05D17168A2680C
:100CC00021F40031114371607168626A21F474117A
:100CD00010430843706001203866FFF7E7FC0446C4
:100CE000306880013FF544AFFFF7E0FC001B0228AD
:100CF0004FF00300F4D93CE780B500F0ABFC80BDB9
:100D000010B590F83C20012A4FF0020241D0012397
:100D100080F83C3080F83D200268D2F804E0D2F838
:100D200008C00C682EF07003234340F6FF34C4F271
:100D30000004A24253600FDCB2F1804F1ED040F29B
:100D40000043C4F200039A4218D040F60003C4F2F4
:100D500000039A4212D016E040F60043C4F20003AA
:100D60009A420BD043F20043C4F201039A4205D0E9
:100D700042F60043C4F201039A4204D149682CF0C0
:100D80008003194391600121002280F83D1080F812
:100D90003C20104610BD0000002804BF0120704711
:100DA00010B5044690F83D0028B9002084F83C00B6
:100DB000204600F01FF8022084F83D002068211D25
:100DC00000F096FC012084F8460084F83E0084F888
:100DD0003F0084F8400084F8410084F8420084F821
:100DE000430084F8440084F8450084F83D00002066
:100DF00010BD000081B00068B0F1804F01D001B09B
:100E0000704741F21C00C4F20200016841F0010188
:100E10000160006800F001000090009801B0704788
:100E200010B5044690F83C0001284FF0020008BFBE
:100E300010BD012284F83C2084F83D0020684FF664
:100E4000777382689A4382600A684F2A0FDC1F2AF0
:100E500022DD202A23D0302A21D0402A4DD14B68D0
:100E6000CA68194600F0ACFD206840213BE06F2ABB
:100E700017DDB2F5005F20D0B2F5805F2AD0702A6E
:100E80003BD1D1E9012CCB68614600F0AFFC206872
:100E9000816841F077011AE00AB1102A2DD111467C
:100EA00021E0502A18D0602A27D14B68CA68194619
:100EB00000F098FD2068602115E0D1E9012CCB6895
:100EC000614600F093FC2068816841F480418160B4
:100ED00000200BE0002009E04B68CA68194600F0CA
:100EE0006FFD2068502100F08DFC0020012184F866
:100EF0003D10002184F83C1010BD0120F6E70000F1
:100F000080B586B00068B0F1804F4FF00000CDE9A9
:100F10000400CDE9020001D006B080BD41F2180006
:100F2000C4F20200016841F004010160006802A9F6
:100F300000F00400019001980220CDE90200059024
:100F400040F60000C4F20100FFF7B6FA06B080BD1B
:100F5000B0B5044690F83C00012804BF0220B0BDA3
:100F60000D464FEAB2010120032984F83C0037D82E
:100F7000DFE801F0020A12222068294600F04AFC4C
:100F8000206850F8181F0EE02068294600F078FC11
:100F9000206850F8181F16E02068294600F0AAFCC7
:100FA000206850F81C1F41F008010160016821F021
:100FB0000401016029690FE02068294600F0D4FC93
:100FC000206850F81C1F41F400610160016821F4A1
:100FD00080610160296909020268114301600020F3
:100FE000002184F83C10B0BD002804BF01207047E8
:100FF00010B5044690F83D0028B9002084F83C0064
:10100000204600F01FF8022084F83D002068211DD2
:1010100000F06EFB012084F8460084F83E0084F85E
:101020003F0084F8400084F8410084F8420084F8CE
:10103000430084F8440084F8450084F83D00002013
:1010400010BD00007047000010B5044641B10829EA
:1010500009D0042914BF04F1410004F13F0004E069
:1010600004F13E0001E004F14000007801281CBFBB
:10107000012010BD022041B1082909D0042914BF64
:1010800084F8410084F83F0004E084F83E0001E069
:1010900084F840002068012200F096FB206843F2AB
:1010A0000041C4F20101884205D042F60042C4F278
:1010B0000102904203D1426C42F40042426440F685
:1010C000FF32C4F2000290420FDCB0F1804F1AD020
:1010D00040F20041C4F20001884214D040F6000101
:1010E000C4F2000188420ED014E040F60042C4F27F
:1010F0000002904207D0884205D042F60041C4F277
:101100000101884206D1816801F00701062904BF68
:10111000002010BD016841F001010160002010BDF8
:10112000704700007047000070B582B00368044645
:101130001868D9685D6900F02F02202A01F02002AA
:1011400005D122B1204600F09BFC02B070BD5FEAE1
:10115000007C08D005F0010E11F4907F8EF001059F
:101160004FD1002D4DD0226B0840C1063FD5012A3A
:101170003DD10020019018680190586801900198B5
:101180005869400600F19C80A08DE18DE28D002A17
:101190001CBF401A5FEA004102D102B070BD00BF1F
:1011A000216851E8031F226821F4907142E803137B
:1011B000002BF5D1216851E8051F226821F00101BB
:1011C00042E80513002BF5D1202184F842100021BC
:1011D000216300BF216851E8031F226821F010013C
:1011E00042E80313002BF5D102216163AEE0010652
:1011F00000F1B2804006D0D5204600F035FC02B0A8
:1012000070BDC30718BF11F4807303D0636C43F043
:101210000103636400F00406012383EA96062E436B
:1012200003D1666C46F00206666400F0020683EAAB
:1012300056032B4303D1636C43F00403636452EA07
:101240000E0218BF0122BCF1000F04D51AB1626C66
:1012500042F008026264626C002A9ED00840800658
:1012600002D5204600F00CFC20684069616C00F05B
:10127000400001F00801401878D0204600F0CCFB77
:101280002068406940066CD5206850E8050F216849
:1012900020F0400041E80502002AF5D1E06B00286B
:1012A0005FD041F60921C0F600014163FFF73CF829
:1012B00000283FF472AFE06B416B884702B070BD0D
:1012C000E06B016849688AB2002A3FF466AFA38DDB
:1012D0009A42BFF462AFE1858069202831D000BF17
:1012E000206850E8030F216820F4807041E8030271
:1012F000002AF5D1206850E8050F216820F0010090
:1013000041E80502002AF5D1206850E8050F216860
:1013100020F0400041E80502002AF5D1202084F8A1
:1013200042000020206300BF206850E8030F2168BE
:1013300020F0100041E80302002AF5D1E06BFEF72F
:10134000D3FF02206063A08DE18D401A81B2204658
:10135000FFF7E6FE02B070BD204600F03DFC02B093
:1013600070BD2046FFF7DEFE02B070BD2046FFF7DD
:10137000D9FE0020606402B070BD0000002804BFE8
:101380000120704710B5044690F8410028B90020AC
:1013900084F84000204600F021F8242084F8410021
:1013A0002068C16821F40051C160204600F0CCFBE8
:1013B0002068016921F490410161416921F02A010D
:1013C0004161C16841F40051C16000202021606486
:1013D00084F8411084F84210606310BD70B586B087
:1013E000002640F600040596CDE90366C4F2010428
:1013F000006804F540518842029601D006B070BDE5
:1014000041F21800C4F20200016802AD41F48041CB
:101410000160016801F4804101910199016841F086
:10142000040101600068294600F004000190019861
:101430004FF4007002900220039003200590204694
:10144000FFF73AF84FF48060CDE9020620462946BE
:101450000496FFF731F8252000210022FFF79CF9C0
:101460002520FFF795F906B070BD00007047000019
:1014700070470000FEE7000070B586B0002541F21D
:101480001800CDE90455CDE90255C4F20200016807
:1014900040F6000441F0200101600168C4F201043B
:1014A00001F02001019101990168012241F004013C
:1014B00001600068202100F004000190019820469E
:1014C0000126FFF7EDF8204640210022FFF7E8F85B
:1014D0006020CDE902060220059002A9204604956D
:1014E000FEF7EAFF06B070BD10B58EB040F2700096
:1014F0000021C2F200004FF08042472340F2E7345F
:101500000D91CDE90B11CDE90911CDE90711CDE917
:101510000511CDE90311CDE90111C0E90023C0E9AE
:10152000021401618161FFF737FC002818BFFEF744
:10153000D5FE4FF480500A9040F27000C2F20000D5
:101540000AA9FFF76DFC002818BFFEF7C7FE40F29E
:101550007000C2F20000FFF747FD002818BFFEF739
:10156000BDFE40F270000024C2F2000008A9CDE9DF
:101570000844FFF7C5FB002818BFFEF7AFFE602048
:1015800001904FF47A70CDE9020440F27000C2F28B
:10159000000001A904220594FFF7DAFC002818BF17
:1015A000FEF79CFE40F27000C2F20000FFF7A8FCBC
:1015B0000EB010BD80B540F2B80043F60001C2F293
:1015C0000000C4F2010100234FF00C0C4FF4E13293
:1015D00080E80E00C0E90333C0E905C3C361FFF72B
:1015E000CDFE002818BFFEF779FE80BDFEE70000A3
:1015F000FEE7000000F0070080F00703042B28BF7F
:1016000004234FF0FF3C03380CFA03F338BF0020EB
:10161000994381400CFA00F022EA00000843704729
:101620007047000081B040F20000C2F20000006884
:1016300044F6D351C1F26201A0FB0101480A0090B7
:1016400000BF0098411E00280091F9D101B07047F9
:1016500070470000B0B501380024B4EB106F1CBF18
:101660000120B0BD4EF21005CEF2000568604FF0CB
:10167000FF300F2100F0FCFA0720AC602860204604
:10168000B0BD000080B5FFF717F880BD70B590B011
:1016900006AC20462821FEF7B9FD002501204FF4B5
:1016A00080310690CDE907150A9002264FF4E0102C
:1016B000CDE90D610F9020460595CDE90355CDE9A3
:1016C0000155FFF78FF978B90F20CDE901064FF4E6
:1016D00080600395CDE9040501A80221FFF770F8A9
:1016E000002804BF10B070BDFEF7F8FD7047000081
:1016F00010B540F6FF3E0368C4F2000E43F2004C02
:101700007045C4F2010C20DCB0F1804F2BD040F2C8
:101710000042C4F20002904225D040F60002C4F21A
:10172000000290421FD0704523DCB0F1804F2ED0D4
:1017300040F20042C4F20002904228D040F600027B
:10174000C4F20002904222D025E040F60042C4F2EA
:101750000002904207D0604505D042F60042C4F234
:1017600001029042DFD14A6823F0700313437045B1
:10177000DBDD40F60042C4F20002904207D0604533
:1017800005D042F60042C4F20102904203D1CA6879
:1017900023F44073134323F080024B69D1F800E037
:1017A0008C681A4360450260C462C0F828E005D026
:1017B00042F60042C4F20102904201D1096901637C
:1017C0000121416110BD000080B501F01F014FF003
:1017D000010CD0F820E00CFA01F32EEA03030362B7
:1017E000036A02FA01F11943016280BDD0F808C012
:1017F00011432CF47F4C41EA032141EA0C01816042
:1018000070470000826822F07002114341F0070126
:101810008160704770B5026A036A22F0020223F009
:1018200001030362466884690B6824F073048D68C1
:1018300044EA030C43F20044C4F2010442F6004EB1
:101840002A43A042C4F2010E01D0704505D1CB68F5
:1018500022F00C0223F004031A43A04201D0704589
:1018600006D126F44073D1E90565334343EA050602
:101870004660C0F818C049684163026270BD00004C
:1018800070B5026A036A22F0200223F0100303629B
:10189000466884690B6824F4E6448D6844EA032CA6
:1018A00043F20044C4F2010442F6004E42EA05123B
:1018B000A042C4F2010E01D0704507D1CB686FF091
:1018C000400522F0C00205EA03131A43A04201D0EA
:1018D000704507D126F44063D1E9056543EA8603E4
:1018E00043EA85064660C0F818C049688163026211
:1018F00070BD000070B5026A036A22F4007223F41E
:10190000807303624668C4690B6824F073048D68B1
:1019100044EA030C43F20044C4F2010442F6004ED0
:1019200042EA0522A042C4F2010E01D0704507D15F
:10193000CB6840F2FF451B0222F44062AB431A43DE
:10194000A04201D0704507D126F44053D1E9056586
:1019500043EA061343EA05164660C0F81CC049680E
:10196000C163026270BD0000B0B5D0F820E0026A29
:1019700022F4805202624468C3690A6823F4E64391
:101980008D6843EA022C43F200432EF40052C4F265
:101990000103984242EA053305D042F60042C4F200
:1019A0000102904204D14A6924F4804545EA821438
:1019B0004460C0F81CC0496801640362B0BD000007
:1019C000D0F820C0036A23F001030362836923F087
:1019D000F00343EA02122CF00A0319438261016208
:1019E00070470000D0F820C0036A23F010030362A0
:1019F000836923F4704343EA02322CF0A00343EAE4
:101A0000011182610162704780B5406A0021C18581
:101A1000C184FFF787FB80BD016851E8031F02689E
:101A200021F4907142E80313002BF5D1016851E8CD
:101A3000051F026821F0010142E80513002BF5D1D2
:101A4000016B01290AD100BF016851E8031F026838
:101A500021F0100142E80313002BF5D1202180F87A
:101A6000421000210163704780B50168CA6822F006
:101A70004002CA60202180F84110FFF7F9FC80BDC8
:101A800080B582B090F8421022291ED18268B2F54A
:101A9000805F02D1016900294AD0816AB2F5805F76
:101AA00007D00AB9026922B10268526802F07F02C7
:101AB00001E0026852680A700121826A1144816261
:101AC000C18D01390A04C18501D002B080BD016811
:101AD000CA6822F02002CA60CA6822F48072CA6012
:101AE0004A6922F001024A61202180F84210002157
:101AF0004163026B012A23D1016300BF016851E8F1
:101B0000031F026821F0100142E80313002BF5D1F6
:101B100001680A68D20606D5002201920A6801927D
:101B2000496801910199818DFFF7FAFA02B080BDF1
:101B30000168826A49686FF35F2111800221BCE766
:101B4000FFF794FC02B080BD10B504460068D4E9EC
:101B500002C22369016921F44051114301616169A5
:101B600043EA0C021143C26841F20C639A431143E9
:101B7000C1604169A26921F44071114343F600023A
:101B8000C4F201029042416102D0FEF7D7FE01E0AB
:101B9000FEF7E6FE6268192148439100B0FBF1F0C0
:101BA00048F21F51C5F2EB11A0FB01235A096FF057
:101BB000630302FB0300322303EB0010A0FB0101CF
:101BC000F02303EA5113206803EB0212C1F343111F
:101BD0001144816010BD000090F84110212923D1EB
:101BE0008168B1F5805F01D1016931B1016A026894
:101BF0004B1C03620978516007E0016A036831F801
:101C0000022B6FF35F225A600162C18C01390A0412
:101C1000C18418BF70470068C16821F08001C160AD
:101C2000C16841F04001C1607047000080B540F2DA
:101C3000B800C2F20000FFF777FA80BDFEE70000AF
:101C4000002848BF704700F01F01012202FA01F18D
:101C50004EF200124009CEF2000242F82010704706
:101C60004EF60C50CEF200000068C0F30220704720
:101C70004EF6145300F00F02CEF2000309011A448D
:101C800000F16043B0F1FF3FC8BF03F5644211703B
:101C9000704700004EF60C51CEF200010A684FF674
:101CA000FF031A4060F30A2242F0806040F0FD70AA
:101CB0000860704740F60004C4F20104FEF70AFD14
:101CC000FFF7E4FCFFF7D8FBFFF70EFCFFF772FC11
:101CD00040F27005C2F2000528460421FFF7B4F96E
:101CE0004FF46176204640210022FEF7D9FC286897
:101CF000866342F21070FEF7CBFB204640210122A2
:101D0000FEF7CEFC2868866342F21070FEF7C0FB37
:101D1000E8E70000000000000000010203040607DD
:101D2000080900000000010203040000501D000823
:101D300000000020100000006C010008601D000879
:101D400010000020F80600008801000800000000D4
:101D50000024F4000100000010000000000000005A
:0400000508000131BD
:00000001FF
